:100000000C942A000C9434000C9434000C943400AA
:100010000C9434000C9434000C9434000C94340090
:100020000C9434000C9434000C9434000C94340080
:100030000C9434000C9434000C9434000C94340070
:100040000C9434000C9434000C9434000C94340060
:100050000C94340011241FBECFE5D4E0DEBFCDBF29
:100060000E9436000C946F000C940000DF93CF9335
:10007000CDB7DEB7A1E3B0E0E1E3F0E080818064DA
:100080008C93A2E3B0E0E2E3F0E080818F7B8C937D
:10009000A4E3B0E0E4E3F0E080818E7F8C93A5E3FD
:1000A000B0E0E5E3F0E0808181608C93E3E3F0E091
:1000B0008081882F90E081709070882341F0A2E3C6
:1000C000B0E0E2E3F0E0808180648C93EFCFA2E3C4
:1000D000B0E0E2E3F0E080818F7B8C93E7CFF8948F
:0200E000FFCF50
:00000001FF
