:100000000C942A000C94990E0C947F120C944700C7
:100010000C9447000C9447000C9447000C94470044
:100020000C9447000C94BE0D0C9447000C944700B0
:100030000C9447000C9447000C9447000C94470024
:100040000C9447000C9447000C9447000C94470014
:100050000C94470011241FBECFE5D4E0DEBFCDBF16
:1000600012E0A0E6B0E0E0EEF6E302C005900D92EB
:10007000A23CB107D9F712E0A2ECB2E001C01D9298
:10008000AE3CB107E1F70E941F0D0C946E1B0C945F
:100090000000DF93CF93CDB7DEB7A7E2B0E0E7E291
:1000A000F0E08081806C8C93A6E2B0E0E6E2F0E0C4
:1000B000808187608C93A6E2B0E0E6E2F0E0808188
:1000C00080688C93CF91DF910895DF93CF9300D018
:1000D0000F92CDB7DEB78B831A821982A7E2B0E008
:1000E000E7E2F0E08081982F907E8B818F71892BE1
:1000F0008C93A6E2B0E0E6E2F0E0808180648C932D
:10010000E6E2F0E0808182958F70882F90E0817028
:1001100090708823A9F7A6E2B0E0E6E2F0E08081E3
:1001200080618C93E4E2F0E08081882F90E09A83F4
:100130008983E5E2F0E08081882F90E0982F88277E
:100140009C0189819A81822B932B9A83898389814F
:100150009A810F900F900F90CF91DF910895DF93C8
:10016000CF93CDB7DEB729970FB6F894DEBF0FBE99
:10017000CDBF9D838C837F836E838C819D8196957B
:10018000879596958795969587959B838A838C818D
:10019000877089838A819B819987888788859985DB
:1001A0008130910509F440C0888599858130910599
:1001B00068F0888599858230910509F463C0888547
:1001C00099858330910509F48BC0B7C08E819F81DA
:1001D00081309105A1F4ABE3B0E0EBE3F0E0808186
:1001E000482F8981282F30E081E090E0022E02C064
:1001F000880F991F0A94E2F7842B8C939EC0ABE37F
:10020000B0E0EBE3F0E08081482F8981282F30E0D7
:1002100081E090E0022E02C0880F991F0A94E2F755
:10022000809584238C9389C08E819F818130910534
:10023000A1F4A8E3B0E0E8E3F0E08081482F8981F1
:10024000282F30E081E090E0022E02C0880F991F35
:100250000A94E2F7842B8C9370C0A8E3B0E0E8E343
:10026000F0E08081482F8981282F30E081E090E004
:10027000022E02C0880F991F0A94E2F7809584230A
:100280008C935BC08E819F8181309105A1F4A5E3A1
:10029000B0E0E5E3F0E08081482F8981282F30E04D
:1002A00081E090E0022E02C0880F991F0A94E2F7C5
:1002B000842B8C9342C0A5E3B0E0E5E3F0E08081BD
:1002C000482F8981282F30E081E090E0022E02C083
:1002D000880F991F0A94E2F7809584238C932DC090
:1002E0008E819F8181309105A1F4A2E3B0E0E2E329
:1002F000F0E08081482F8981282F30E081E090E074
:10030000022E02C0880F991F0A94E2F7842B8C9367
:1003100014C0A2E3B0E0E2E3F0E08081482F8981DD
:10032000282F30E081E090E0022E02C0880F991F54
:100330000A94E2F7809584238C9329960FB6F8945B
:10034000DEBF0FBECDBFCF91DF910895DF93CF9376
:10035000CDB7DEB729970FB6F894DEBF0FBECDBF7D
:100360009D838C838C819D819695879596958795A5
:10037000969587959B838A838C81877089834A8130
:100380005B8159874887888599858130910529F156
:10039000488559854130510560F0888599858230BE
:1003A000910579F1488559854330510509F43DC0DF
:1003B00050C0E9E3F0E08081282F30E08981882F68
:1003C00090E0A90102C0559547958A95E2F7CA01C8
:1003D000817090709F838E833EC0E6E3F0E0808161
:1003E000282F30E08981882F90E0A90102C055951F
:1003F00047958A95E2F7CA01817090709F838E833A
:100400002AC0E3E3F0E08081282F30E08981882F43
:1004100090E0A90102C0559547958A95E2F7CA0177
:10042000817090709F838E8316C0E0E3F0E080813E
:10043000282F30E08981882F90E0A90102C05595CE
:1004400047958A95E2F7CA01817090709F838E83E9
:1004500002C01F821E828E819F8129960FB6F8945A
:10046000DEBF0FBECDBFCF91DF910895DF93CF9355
:1004700000D000D00F92CDB7DEB79A8389836B830B
:1004800089819A819D838C838C819D8181309105A6
:10049000A9F08C819D818130910558F08C819D81DE
:1004A0008230910581F08C819D818330910581F0AE
:1004B00013C0EBE3F0E08B8180830EC0E8E3F0E053
:1004C0008B81808309C0E5E3F0E08B81808304C0E9
:1004D000E2E3F0E08B8180830F900F900F900F90FC
:1004E0000F90CF91DF910895DF93CF93CDB7DEB713
:1004F00028970FB6F894DEBF0FBECDBF198209C191
:100500008981869586958695882F90E09C838B833C
:10051000898187708A838B819C819E838D838D8165
:100520009E818130910509F44AC08D819E81813080
:10053000910568F08D819E818230910509F477C024
:100540008D819E818330910509F4A9C0DFC0898126
:10055000882F90E0880F991F880F991FFC01E05A9F
:10056000FF4F8081918181309105A1F4AAE3B0E031
:10057000EAE3F0E08081482F8A81282F30E081E093
:1005800090E0022E02C0880F991F0A94E2F7842B94
:100590008C93BCC0AAE3B0E0EAE3F0E08081482F8E
:1005A0008A81282F30E081E090E0022E02C0880F7F
:1005B000991F0A94E2F7809584238C93A7C08981C0
:1005C000882F90E0880F991F880F991FFC01E05A2F
:1005D000FF4F8081918181309105A1F4A7E3B0E0C4
:1005E000E7E3F0E08081482F8A81282F30E081E026
:1005F00090E0022E02C0880F991F0A94E2F7842B24
:100600008C9384C0A7E3B0E0E7E3F0E08081482F5B
:100610008A81282F30E081E090E0022E02C0880F0E
:10062000991F0A94E2F7809584238C936FC0898187
:10063000882F90E0880F991F880F991FFC01E05ABE
:10064000FF4F8081918181309105A1F4A4E3B0E056
:10065000E4E3F0E08081482F8A81282F30E081E0B8
:1006600090E0022E02C0880F991F0A94E2F7842BB3
:100670008C934CC0A4E3B0E0E4E3F0E08081482F29
:100680008A81282F30E081E090E0022E02C0880F9E
:10069000991F0A94E2F7809584238C9337C089814F
:1006A000882F90E0880F991F880F991FFC01E05A4E
:1006B000FF4F8081918181309105A1F4A1E3B0E0E9
:1006C000E1E3F0E08081482F8A81282F30E081E04B
:1006D00090E0022E02C0880F991F0A94E2F7842B43
:1006E0008C9314C0A1E3B0E0E1E3F0E08081482FF7
:1006F0008A81282F30E081E090E0022E02C0880F2E
:10070000991F0A94E2F7809584238C9389818F5FE7
:1007100089838981803208F4F3CE19820DC18981E1
:10072000869586958695882F90E09C838B8389811A
:1007300087708A838B819C8198878F838F8198852E
:100740008130910509F44BC08F81988581309105E6
:1007500068F08F8198858230910509F479C08F8186
:1007600098858330910509F4ACC0E3C08981882F56
:1007700090E0880F991F0196880F991FFC01E05A9D
:10078000FF4F8081918181309105A1F4ABE3B0E00E
:10079000EBE3F0E08081482F8A81282F30E081E070
:1007A00090E0022E02C0880F991F0A94E2F7842B72
:1007B0008C93BFC0ABE3B0E0EBE3F0E08081482F67
:1007C0008A81282F30E081E090E0022E02C0880F5D
:1007D000991F0A94E2F7809584238C93AAC089819B
:1007E000882F90E0880F991F0196880F991FFC01B0
:1007F000E05AFF4F8081918181309105A1F4A8E3F7
:10080000B0E0E8E3F0E08081482F8A81282F30E0D3
:1008100081E090E0022E02C0880F991F0A94E2F74F
:10082000842B8C9386C0A8E3B0E0E8E3F0E08081FD
:10083000482F8A81282F30E081E090E0022E02C00C
:10084000880F991F0A94E2F7809584238C9371C0D6
:100850008981882F90E0880F991F0196880F991F32
:10086000FC01E05AFF4F8081918181309105A1F414
:10087000A5E3B0E0E5E3F0E08081482F8A81282FEE
:1008800030E081E090E0022E02C0880F991F0A94A8
:10089000E2F7842B8C934DC0A5E3B0E0E5E3F0E0F4
:1008A0008081482F8A81282F30E081E090E0022E5D
:1008B00002C0880F991F0A94E2F7809584238C93D5
:1008C00038C08981882F90E0880F991F0196880F82
:1008D000991FFC01E05AFF4F808191818130910581
:1008E000A1F4A2E3B0E0E2E3F0E08081482F8A8146
:1008F000282F30E081E090E0022E02C0880F991F7F
:100900000A94E2F7842B8C9314C0A2E3B0E0E2E3F4
:10091000F0E08081482F8A81282F30E081E090E04C
:10092000022E02C0880F991F0A94E2F78095842353
:100930008C9389818F5F89838981803208F4EFCE1F
:1009400028960FB6F894DEBF0FBECDBFCF91DF91D2
:100950000895DF93CF93CDB7DEB7A4E3B0E0E4E32F
:10096000F0E080818F608C93A4E3B0E0E4E3F0E0FA
:1009700080818F788C93A5E3B0E0E5E3F0E080819F
:100980008F678C93CF91DF910895DF93CF9300D041
:1009900000D0CDB7DEB79A8389837C836B83A5E3D0
:1009A000B0E0E5E3F0E080818F678C93A5E3B0E0F1
:1009B000E5E3F0E080818E7F8C9384E190E00E94FB
:1009C000A601009771F484E190E00E94A6010097CF
:1009D000D1F3E981FA8181E38083EB81FC8111828B
:1009E000108285E190E00E94A601009771F485E1F4
:1009F00090E00E94A6010097D1F3E981FA8182E399
:100A00008083EB81FC811182108286E190E00E945C
:100A1000A601009771F486E190E00E94A60100977C
:100A2000D1F3E981FA8183E38083EB81FC81118238
:100A300010820F900F900F900F90CF91DF9108953B
:100A4000DF93CF9300D000D0CDB7DEB79A838983F0
:100A50007C836B83A5E3B0E0E5E3F0E080818F6702
:100A60008C93A5E3B0E0E5E3F0E080818D7F8C938B
:100A700084E190E00E94A601009771F484E190E087
:100A80000E94A6010097D1F3E981FA8184E3808373
:100A9000EB81FC811182108285E190E00E94A60129
:100AA000009771F485E190E00E94A6010097D1F3D0
:100AB000E981FA8185E38083EB81FC8111821082D8
:100AC00086E190E00E94A601009771F486E190E033
:100AD0000E94A6010097D1F3E981FA8186E3808321
:100AE000EB81FC81118210820F900F900F900F907C
:100AF000CF91DF910895DF93CF9300D000D0CDB791
:100B0000DEB79A8389837C836B83A5E3B0E0E5E35A
:100B1000F0E080818F678C93A5E3B0E0E5E3F0E03F
:100B200080818B7F8C9384E190E00E94A6010097E6
:100B300071F484E190E00E94A6010097D1F3E9816D
:100B4000FA8187E38083EB81FC811182108285E149
:100B500090E00E94A601009771F485E190E00E9468
:100B6000A6010097D1F3E981FA8188E38083EB81C4
:100B7000FC811182108286E190E00E94A60100971C
:100B800071F486E190E00E94A6010097D1F3E9811B
:100B9000FA8189E38083EB81FC81118210820F90BE
:100BA0000F900F900F90CF91DF910895DF93CF9327
:100BB00000D000D0CDB7DEB79A8389837C836B8366
:100BC000A5E3B0E0E5E3F0E080818F678C93A5E3D7
:100BD000B0E0E5E3F0E08081877F8C9384E190E0F2
:100BE0000E94A601009771F484E190E00E94A601A2
:100BF0000097D1F3E981FA818AE28083EB81FC815D
:100C00001182108285E190E00E94A601009771F4A4
:100C100085E190E00E94A6010097D1F3E981FA8175
:100C200080E38083EB81FC811182108286E190E079
:100C30000E94A601009771F486E190E00E94A6014F
:100C40000097D1F3E981FA8183E28083EB81FC8113
:100C5000118210820F900F900F900F90CF91DF9123
:100C60000895DF93CF9300D00F92CDB7DEB781E028
:100C700090E09A8389831B8220C0CE0103969E0157
:100C80002F5F3F4FB9010E94C504CE0103969E011C
:100C90002F5F3F4FB9010E942005CE0103969E01B0
:100CA0002F5F3F4FB9010E947B05CE0103969E0145
:100CB0002F5F3F4FB9010E94D60589819A81009725
:100CC000E1F68B810F900F900F90CF91DF910895F7
:100CD000DF93CF93CDB7DEB72E970FB6F894DEBF74
:100CE0000FBECDBFAAE3B0E0EAE3F0E08081806F01
:100CF0008C93A7E3B0E0E7E3F0E0808182608C931F
:100D0000A7E3B0E0E7E3F0E0808184608C93A7E3A1
:100D1000B0E0E7E3F0E0808188608C9380E090E0D1
:100D2000A0EAB1E48B879C87AD87BE876B857C8505
:100D30008D859E8520E030E04AE755E40E9420162C
:100D4000DC01CB018F839887A987BA876F8178856B
:100D500089859A8520E030E040E85FE30E94AA1789
:100D600088232CF481E090E09E838D833FC06F81C7
:100D7000788589859A8520E03FEF4FE757E40E9408
:100D80004A1718164CF56B857C858D859E8520E06D
:100D900030E040E251E40E942016DC01CB01BC01AE
:100DA000CD010E944A14DC01CB019E838D830FC0CC
:100DB00080E991E09C838B838B819C810197F1F783
:100DC0009C838B838D819E8101979E838D838D81F2
:100DD0009E81009769F714C06F81788589859A850F
:100DE0000E944A14DC01CB019E838D838D819E81FC
:100DF0009A83898389819A810197F1F79A838983FC
:100E00008AE090E060E070E00E94AF0083E30E941F
:100E1000210782E30E94210788E20E94210786E0E1
:100E20000E9421078FE00E94210781E00E94210794
:100E30002E960FB6F894DEBF0FBECDBFCF91DF91D7
:100E40000895DF93CF93CDB7DEB7E9970FB6F89447
:100E5000DEBF0FBECDBF89AF89E090E060E070E0FB
:100E60000E94AF00EBE3F0E08081982F9F7089AD86
:100E7000807F892B282F80E090E0622F0E9436022D
:100E80008BE090E061E070E00E94AF0080E090E0D5
:100E9000A0E0B0E48DAB9EABAFABB8AF6DA97EA9BF
:100EA0008FA998AD20E030E04AE755E40E94201673
:100EB000DC01CB0189AB9AABABABBCAB69A97AA91E
:100EC0008BA99CA920E030E040E85FE30E94AA17CC
:100ED00088232CF481E090E098AB8FA73FC069A9EC
:100EE0007AA98BA99CA920E03FEF4FE757E40E9425
:100EF0004A1718164CF56DA97EA98FA998AD20E068
:100F000030E040E251E40E942016DC01CB01BC013C
:100F1000CD010E944A14DC01CB0198AB8FA70FC012
:100F200080E991E09EA78DA78DA59EA50197F1F779
:100F30009EA78DA78FA598A9019798AB8FA78FA57E
:100F400098A9009769F714C069A97AA98BA99CA9E7
:100F50000E944A14DC01CB0198AB8FA78FA598A9FA
:100F60009CA78BA78BA59CA50197F1F79CA78BA7A6
:100F70008BE090E060E070E00E94AF0080E090E0E5
:100F8000A0EAB0E48FA398A7A9A7BAA76FA178A5F4
:100F900089A59AA520E030E04AE755E40E94201692
:100FA000DC01CB018BA39CA3ADA3BEA36BA17CA151
:100FB0008DA19EA120E030E040E85FE30E94AA17E7
:100FC00088232CF481E090E09AA389A33FC06BA111
:100FD0007CA18DA19EA120E03FEF4FE757E40E9446
:100FE0004A1718164CF56FA178A589A59AA520E097
:100FF00030E040E251E40E942016DC01CB01BC014C
:10100000CD010E944A14DC01CB019AA389A30FC031
:1010100080E991E098A38F8F8F8D98A10197F1F7C8
:1010200098A38F8F89A19AA101979AA389A389A1D7
:101030009AA1009769F714C06BA17CA18DA19EA114
:101040000E944A14DC01CB019AA389A389A19AA129
:101050009E8F8D8F8D8D9E8D0197F1F79E8F8D8F39
:10106000EBE3F0E08081282F2F7089AD882F90E08E
:1010700082959295907F9827807F9827822B282FA2
:1010800080E090E0622F0E9436028BE090E061E009
:1010900070E00E94AF0080E090E0A0E0B0E4898FB3
:1010A0009A8FAB8FBC8F698D7A8D8B8D9C8D20E054
:1010B00030E04AE755E40E942016DC01CB018D8B1D
:1010C0009E8BAF8BB88F6D897E898F89988D20E03C
:1010D00030E040E85FE30E94AA1788232CF481E007
:1010E00090E09C8B8B8B3FC06D897E898F89988D1A
:1010F00020E03FEF4FE757E40E944A1718164CF5DF
:10110000698D7A8D8B8D9C8D20E030E040E251E43A
:101110000E942016DC01CB01BC01CD010E944A14C3
:10112000DC01CB019C8B8B8B0FC080E991E09A8B0B
:10113000898B89899A890197F1F79A8B898B8B8999
:101140009C8901979C8B8B8B8B899C89009769F775
:1011500014C06D897E898F89988D0E944A14DC01A4
:10116000CB019C8B8B8B8B899C89988B8F878F85F0
:1011700098890197F1F7988B8F878BE090E060E07A
:1011800070E00E94AF0080E090E0A0E0B0E48B87C8
:101190009C87AD87BE876B857C858D859E8520E08D
:1011A00030E04AE755E40E942016DC01CB018F8332
:1011B0009887A987BA876F81788589859A8520E085
:1011C00030E040E85FE30E94AA1788232CF481E016
:1011D00090E09E838D833FC06F81788589859A8555
:1011E00020E03FEF4FE757E40E944A1718164CF5EE
:1011F0006B857C858D859E8520E030E040E251E462
:101200000E942016DC01CB01BC01CD010E944A14D2
:10121000DC01CB019E838D830FC080E991E09C832C
:101220008B838B819C810197F1F79C838B838D81CC
:101230009E8101979E838D838D819E81009769F7A2
:1012400014C06F81788589859A850E944A14DC01D3
:10125000CB019E838D838D819E819A838983898131
:101260009A810197F1F79A838983E9960FB6F894EA
:10127000DEBF0FBECDBFCF91DF910895DF93CF9337
:10128000CDB7DEB7E9970FB6F894DEBF0FBECDBF7E
:1012900089AF89E090E061E070E00E94AF00EBE38D
:1012A000F0E08081982F9F7089AD807F892B282F57
:1012B00080E090E0622F0E9436028BE090E061E0D7
:1012C00070E00E94AF0080E090E0A0E0B0E48DAB61
:1012D0009EABAFABB8AF6DA97EA98FA998AD20E04A
:1012E00030E04AE755E40E942016DC01CB0189ABCF
:1012F0009AABABABBCAB69A97AA98BA99CA920E03E
:1013000030E040E85FE30E94AA1788232CF481E0D4
:1013100090E098AB8FA73FC069A97AA98BA99CA937
:1013200020E03FEF4FE757E40E944A1718164CF5AC
:101330006DA97EA98FA998AD20E030E040E251E48C
:101340000E942016DC01CB01BC01CD010E944A1491
:10135000DC01CB0198AB8FA70FC080E991E09EA77D
:101360008DA78DA59EA50197F1F79EA78DA78FA5A7
:1013700098A9019798AB8FA78FA598A9009769F7AF
:1013800014C069A97AA98BA99CA90E944A14DC01FE
:10139000CB0198AB8FA78FA598A99CA78BA78BA5EE
:1013A0009CA50197F1F79CA78BA78BE090E060E0EC
:1013B00070E00E94AF0080E090E0A0EAB0E48FA36C
:1013C00098A7A9A7BAA76FA178A589A59AA520E093
:1013D00030E04AE755E40E942016DC01CB018BA3E4
:1013E0009CA3ADA3BEA36BA17CA18DA19EA120E077
:1013F00030E040E85FE30E94AA1788232CF481E0E4
:1014000090E09AA389A33FC06BA17CA18DA19EA16E
:1014100020E03FEF4FE757E40E944A1718164CF5BB
:101420006FA178A589A59AA520E030E040E251E4BB
:101430000E942016DC01CB01BC01CD010E944A14A0
:10144000DC01CB019AA389A30FC080E991E098A3A6
:101450008F8F8F8D98A10197F1F798A38F8F89A116
:101460009AA101979AA389A389A19AA1009769F7E4
:1014700014C06BA17CA18DA19EA10E944A14DC0125
:10148000CB019AA389A389A19AA19E8F8D8F8D8D5F
:101490009E8D0197F1F79E8F8D8FEBE3F0E08081B9
:1014A000282F2F7089AD992787FD90958295929569
:1014B000907F9827807F9827822B282F80E090E0CC
:1014C000622F0E9436028BE090E061E070E00E94A3
:1014D000AF0080E090E0A0E0B0E4898F9A8FAB8FFE
:1014E000BC8F698D7A8D8B8D9C8D20E030E04AE732
:1014F00055E40E942016DC01CB018D8B9E8BAF8BB7
:10150000B88F6D897E898F89988D20E030E040E822
:101510005FE30E94AA1788232CF481E090E09C8B63
:101520008B8B3FC06D897E898F89988D20E03FEF3E
:101530004FE757E40E944A1718164CF5698D7A8DCB
:101540008B8D9C8D20E030E040E251E40E9420161B
:10155000DC01CB01BC01CD010E944A14DC01CB01AE
:101560009C8B8B8B0FC080E991E09A8B898B89894A
:101570009A890197F1F79A8B898B8B899C890197BE
:101580009C8B8B8B8B899C89009769F714C06D8924
:101590007E898F89988D0E944A14DC01CB019C8B37
:1015A0008B8B8B899C89988B8F878F8598890197E6
:1015B000F1F7988B8F878BE090E060E070E00E94FD
:1015C000AF0080E090E0A0E0B0E48B879C87AD871F
:1015D000BE876B857C858D859E8520E030E04AE75F
:1015E00055E40E942016DC01CB018F839887A987E0
:1015F000BA876F81788589859A8520E030E040E858
:101600005FE30E94AA1788232CF481E090E09E8378
:101610008D833FC06F81788589859A8520E03FEF73
:101620004FE757E40E944A1718164CF56B857C85E6
:101630008D859E8520E030E040E251E40E94201636
:10164000DC01CB01BC01CD010E944A14DC01CB01BD
:101650009E838D830FC080E991E09C838B838B8177
:101660009C810197F1F79C838B838D819E810197EB
:101670009E838D838D819E81009769F714C06F8151
:10168000788589859A850E944A14DC01CB019E8366
:101690008D838D819E819A83898389819A81019727
:1016A000F1F79A838983E9960FB6F894DEBF0FBEEF
:1016B000CDBFCF91DF910895DF93CF9300D00F92EC
:1016C000CDB7DEB79B838A83198219C08981282F01
:1016D00030E08A819B81FC01E20FF31F80810E9430
:1016E0003E0989818F5F89838981803129F482E075
:1016F00060E00E94900B03C08981803259F089819B
:10170000282F30E08A819B81FC01E20FF31F80814A
:101710008823E1F60F900F900F90CF91DF910895FD
:10172000DF93CF9300D000D0CDB7DEB789836A8333
:101730008981282F30E03C832B838B819C818130F1
:10174000910531F02B813C812230310539F00BC0FD
:101750008A818F7080680E94210705C08A818F70FE
:10176000806C0E9421070F900F900F900F90CF91E7
:10177000DF910895DF93CF9300D000D0CDB7DEB7CF
:101780008A837C836B838A818830F8F48A81882FEE
:1017900090E00896880F991F880F991F880F991F4E
:1017A0000E94210719820EC08981282F30E08B8189
:1017B0009C81FC01E20FF31F80810E943E09898118
:1017C0008F5F89838981883078F30E9468060F9043
:1017D0000F900F900F90CF91DF910895DF93CF93EB
:1017E000CDB7DEB766970FB6F894DEBF0FBECDBF9C
:1017F0009A8B898B4B8B5C8B6D8B7E8B1D821E82B3
:101800001F8218868B899C89AD89BE8989839A83BA
:10181000AB83BC838D819E81AF81B8850196A11D6C
:10182000B11D8D839E83AF83B88789819A81AB81F7
:10183000BC812AE030E040E050E0BC01CD010E94D4
:10184000FA1ADA01C90189839A83AB83BC8389813F
:101850009A81AB81BC810097A105B105D9F61D869F
:101860001E861F86188A40C08B899C89AD89BE89D7
:101870002AE030E040E050E0BC01CD010E94FA1ABD
:10188000DC01CB0189879A87AB87BC878B899C89D0
:10189000AD89BE892AE030E040E050E0BC01CD01D6
:1018A0000E94FA1ADA01C9018B8B9C8BAD8BBE8B1F
:1018B0008D859E859C01209530958D819E81280F78
:1018C000391F89899A89FC01E20FF31F8985805DA0
:1018D00080838D859E85AF85B8890196A11DB11D38
:1018E0008D879E87AF87B88B2D853E854F8558891C
:1018F0008D819E81AF81B885281739074A075B071C
:101900000CF4B2CF8D819E8129893A89F901E80FC3
:10191000F91F108266960FB6F894DEBF0FBECDBFDA
:10192000CF91DF910895DF93CF93CDB7DEB76A975C
:101930000FB6F894DEBF0FBECDBF6F8B788F898F47
:101940009A8F1D826F89788D898D9A8D20E030E085
:1019500040E050E00E94AA1788235CF481E08D8368
:101960008F89988DA98DBA8DB0588F8B988FA98F3C
:10197000BA8F6F89788D898D9A8D0E943818DC0115
:10198000CB01BC01CD010E94DA179B01AC016F892C
:10199000788D898D9A8D0E94C215DC01CB01BC0126
:1019A000CD0120E030E04AE754E40E942016DC013B
:1019B000CB0189839A83AB83BC8369817A818B81D4
:1019C0009C810E9438189B01AC01CE014296BA015D
:1019D000A9010E94EE0B6F89788D898D9A8D0E94E6
:1019E00038189B01AC01CE010696BA01A9010E94EC
:1019F000EE0B8D81813019F48DE20E943E09CE01FB
:101A000006960E945C0B69817A818B819C8120E023
:101A100030E040E050E00E941A17882339F08EE24F
:101A20000E943E09CE0142960E945C0B6A960FB658
:101A3000F894DEBF0FBECDBFCF91DF910895DF9345
:101A4000CF930F92CDB7DEB70E9474020E94D813D5
:101A500080E090E00E944613A3E5B0E0E3E5F0E00B
:101A60008081887F85608C93A9E5B0E0E9E5F0E0AE
:101A7000808181608C930E9468060E94A904EBE536
:101A8000F0E080E48083E5E5F0E083E08083ABE58F
:101A9000B0E0EBE5F0E0808180688C93A5E5B0E0F4
:101AA000E5E5F0E080818C608C937894E5E3F0E0EC
:101AB0008081882F90E081709070882311F0809150
:101AC000E2008091CA02882F90E081709070882394
:101AD00011F18091CA0282958F70882F90E08170F9
:101AE00090700097C1F48091CA02829586958770A4
:101AF000882F90E081709070009769F481E060E039
:101B00000E94900B83EE90E00E945C0B8091CA02D1
:101B10008E7F8093CA028091CA028695882F90E0BA
:101B200081709070882311F18091CA0282958F7024
:101B3000882F90E0817090700097C1F48091CA0264
:101B4000829586958770882F90E0817090700097BD
:101B500069F482E060E00E94900B81EF90E00E94C7
:101B60005C0B8091CA028D7F8093CA020E94B312DF
:101B70008091E2008F5F8093E20098CF1F920F92D6
:101B80000FB60F9211242F933F934F935F936F9350
:101B90007F938F939F93AF93BF93EF93FF93DF93C5
:101BA000CF9300D0CDB7DEB78091C2029091C3022F
:101BB00001969093C3028093C2028091C4029091D7
:101BC000C50201969093C5028093C4028091C6021B
:101BD0009091C70201969093C7028093C6028091AC
:101BE000C8029091C90201969093C9028093C802DD
:101BF0008091E000282F30E08EE49EE0AC01249F2D
:101C0000C001259F900D349F900D11249C0180915F
:101C1000C2029091C3022817390791F48091CA0239
:101C200081608093CA021092C3021092C202809116
:101C3000CA0284608093CA021092C7021092C60240
:101C40008091E100282F30E08EE49EE0AC01249FDB
:101C5000C001259F900D349F900D11249C0180910F
:101C6000C4029091C5022817390791F48091CA02E5
:101C700082608093CA021092C5021092C4028091C1
:101C8000CA0288608093CA021092C9021092C802E8
:101C90008091C6029091C70254E0843C950781F57B
:101CA0008091CA0286958695882F90E08170907009
:101CB000882331F18FEF90E00E941D148091CA02B9
:101CC00082958F70882F90E081709070009799F4C2
:101CD0008091CA02829586958770882F90E08170E6
:101CE0009070009741F481E060E00E94900B8CE0DE
:101CF00091E00E945C0B8091CA028B7F8093CA02A4
:101D00008091C8029091C9020F900F90CF91DF91FE
:101D1000FF91EF91BF91AF919F918F917F916F91C3
:101D20005F914F913F912F910F900FBE0F901F9099
:101D300018951F920F920FB60F9211240F931F93B5
:101D40002F933F934F935F936F937F938F939F93C3
:101D5000AF93BF93EF93FF93DF93CF93CDB7DEB7EE
:101D6000C655D040DEBFCDBF0E9468068CE191E031
:101D70000E945C0B0E9431068093CB028091CB02C3
:101D80000E943E09FE01EF5AFF4F80E090E0A6E975
:101D9000B3E480839183A283B3838E01035B1F4FDF
:101DA000FE01EF5AFF4F608171818281938120E0B3
:101DB00030E04AE755E40E942016DC01CB01F8012F
:101DC00080839183A283B383FE01E35BFF4F608135
:101DD00071818281938120E030E040E85FE30E94DE
:101DE000AA17882344F4FE01E55BFF4F81E090E0F1
:101DF0009183808364C0FE01E35BFF4F608171814A
:101E00008281938120E03FEF4FE757E40E944A1719
:101E100018160CF043C0FE01EF5AFF4F608171812C
:101E20008281938120E030E040E251E40E9420165C
:101E3000DC01CB018E01055B1F4FBC01CD010E946F
:101E40004A14DC01CB01F801918380831FC0FE019D
:101E5000E75BFF4F80E991E091838083FE01E75BC0
:101E6000FF4F808191810197F1F7FE01E75BFF4F02
:101E700091838083DE01A55BBF4FFE01E55BFF4FD1
:101E800080819181019711969C938E93FE01E55B71
:101E9000FF4F808191810097D1F627C08E01055BAD
:101EA0001F4FFE01E35BFF4F60817181828193814F
:101EB0000E944A14DC01CB01F80191838083DE018A
:101EC000A95BBF4FFE01E55BFF4F808191818D9340
:101ED0009C93FE01E95BFF4F808191810197F1F7AF
:101EE000FE01E95BFF4F918380830E94680686E2D2
:101EF00091E00E945C0B0E9431068093CC02FE01AF
:101F0000ED5BFF4F80E090E0A6E1B3E48083918336
:101F1000A283B3838E01015C1F4FFE01ED5BFF4F77
:101F2000608171818281938120E030E04AE755E44D
:101F30000E942016DC01CB01F80180839183A283EB
:101F4000B383FE01FF96608171818281938120E0DD
:101F500030E040E85FE30E94AA1788232CF481E078
:101F600090E09EAF8DAF46C0FE01FF96608171810B
:101F70008281938120E03FEF4FE757E40E944A17A8
:101F8000181664F5FE01ED5BFF4F6081718182815F
:101F9000938120E030E040E251E40E942016DC0111
:101FA000CB01BC01CD010E944A14DC01CB019EAFE4
:101FB0008DAF0FC080E991E09CAF8BAF8BAD9CAD36
:101FC0000197F1F79CAF8BAF8DAD9EAD01979EAFA2
:101FD0008DAF8DAD9EAD009769F716C0FE01FF96DF
:101FE00060817181828193810E944A14DC01CB015E
:101FF0009EAF8DAF8DAD9EAD9AAF89AF89AD9AADD5
:102000000197F1F79AAF89AF8091CC020E943E0907
:102010000E9431068093CD028091CD020E943E093C
:1020200080E090E0A6E9B3E48DAB9EABAFABB8AF78
:102030006DA97EA98FA998AD20E030E04AE755E46C
:102040000E942016DC01CB0189AB9AABABABBCABD9
:1020500069A97AA98BA99CA920E030E040E85FE358
:102060000E94AA1788232CF481E090E098AB8FA7F8
:102070003FC069A97AA98BA99CA920E03FEF4FE74F
:1020800057E40E944A1718164CF56DA97EA98FA92E
:1020900098AD20E030E040E251E40E942016DC01DF
:1020A000CB01BC01CD010E944A14DC01CB0198ABED
:1020B0008FA70FC080E991E09EA78DA78DA59EA553
:1020C0000197F1F79EA78DA78FA598A9019798ABC7
:1020D0008FA78FA598A9009769F714C069A97AA955
:1020E0008BA99CA90E944A14DC01CB0198AB8FA755
:1020F0008FA598A99CA78BA78BA59CA50197F1F705
:102100009CA78BA70E9468068091CB02282F3327BB
:1021100027FD309567963FAF2EAF679767968EADD8
:102120009FAD67978133910549F06796EEADFFAD9E
:102130006797E233F10509F4A8C04EC18091CD0242
:10214000482F8091CC02992787FD90959C01220F02
:10215000331FC901880F991F880F991F820F931F82
:10216000840F80518093E0001092C3021092C2024B
:1021700085E391E00E945C0B8091E000882F90E065
:10218000A0E0B0E0BC01CD010E948C18DC01CB01C5
:10219000BC01CD010E94930C86E491E00E945C0B8F
:1021A00080E090E8ABEBB4E48FA398A7A9A7BAA707
:1021B0006FA178A589A59AA520E030E04AE755E40B
:1021C0000E942016DC01CB018BA39CA3ADA3BEA370
:1021D0006BA17CA18DA19EA120E030E040E85FE3EF
:1021E0000E94AA1788232CF481E090E09AA389A387
:1021F0003FC06BA17CA18DA19EA120E03FEF4FE7E6
:1022000057E40E944A1718164CF56FA178A589A5C6
:102210009AA520E030E040E251E40E942016DC0163
:10222000CB01BC01CD010E944A14DC01CB019AA371
:1022300089A30FC080E991E098A38F8F8F8D98A11B
:102240000197F1F798A38F8F89A19AA101979AA37B
:1022500089A389A19AA1009769F714C06BA17CA1F9
:102260008DA19EA10E944A14DC01CB019AA389A3EF
:1022700089A19AA19E8F8D8F8D8D9E8D0197F1F7EB
:102280009E8F8D8F0E94680621C18091CD02482FBC
:102290008091CC02992787FD90959C01220F331FD6
:1022A000C901880F991F880F991F820F931F840FF0
:1022B00080518093E1001092C5021092C40289E41B
:1022C00091E00E945C0B8091E100882F90E0A0E0FB
:1022D000B0E0BC01CD010E948C18DC01CB01BC0137
:1022E000CD010E94930C86E491E00E945C0B80E09B
:1022F00090E8A4EDB4E4898F9A8FAB8FBC8F698D81
:102300007A8D8B8D9C8D20E030E04AE755E40E9469
:102310002016DC01CB018D8B9E8BAF8BB88F6D8926
:102320007E898F89988D20E030E040E85FE30E944D
:10233000AA1788232CF481E090E09C8B8B8B3FC004
:102340006D897E898F89988D20E03FEF4FE757E4B4
:102350000E944A1718164CF5698D7A8D8B8D9C8DCD
:1023600020E030E040E251E40E942016DC01CB0185
:10237000BC01CD010E944A14DC01CB019C8B8B8BEC
:102380000FC080E991E09A8B898B89899A8901979E
:10239000F1F79A8B898B8B899C8901979C8B8B8B0E
:1023A0008B899C89009769F714C06D897E898F8914
:1023B000988D0E944A14DC01CB019C8B8B8B8B89FE
:1023C0009C89988B8F878F8598890197F1F7988BD7
:1023D0008F870E9468067AC00E9468068AE591E0AD
:1023E0000E945C0B80E090E0AFE2B4E48B879C87B6
:1023F000AD87BE876B857C858D859E8520E030E02E
:102400004AE755E40E942016DC01CB018F839887B0
:10241000A987BA876F81788589859A8520E030E021
:1024200040E85FE30E94AA1788232CF481E090E043
:102430009E838D833FC06F81788589859A8520E052
:102440003FEF4FE757E40E944A1718164CF56B858B
:102450007C858D859E8520E030E040E251E40E943D
:102460002016DC01CB01BC01CD010E944A14DC0125
:10247000CB019E838D830FC080E991E09C838B8389
:102480008B819C810197F1F79C838B838D819E8149
:1024900001979E838D838D819E81009769F714C07B
:1024A0006F81788589859A850E944A14DC01CB0169
:1024B0009E838D838D819E819A83898389819A8170
:1024C0000197F1F79A8389830E946806CA5ADF4F01
:1024D000DEBFCDBFCF91DF91FF91EF91BF91AF9163
:1024E0009F918F917F916F915F914F913F912F912C
:1024F0001F910F910F900FBE0F901F9018951F9274
:102500000F920FB60F9211242F933F934F935F9327
:102510006F937F938F939F93AF93BF93EF93FF93AB
:10252000DF93CF93CDB7DEB78091CA028B7F8093C4
:10253000CA028091CA02877F8093CA020E946806FD
:10254000CF91DF91FF91EF91BF91AF919F918F91CB
:102550007F916F915F914F913F912F910F900FBE9F
:102560000F901F901895DF93CF93CDB7DEB780E023
:1025700090E00E94A601009711F582E090E061E0F2
:1025800070E00E94AF008091CA0282958F70882F00
:1025900090E081709070009761F481E060E00E94AB
:1025A000900B8BE691E00E945C0B8BE791E00E9420
:1025B0001D148091CA0280618093CA021DC082E00E
:1025C00090E060E070E00E94AF008091CA028295C6
:1025D0008F70882F90E081709070882341F081E0A7
:1025E00060E00E94900B8BE891E00E945C0B809170
:1025F000CA028F7E8093CA0281E090E00E94A60109
:10260000009719F183E090E061E070E00E94AF0074
:102610008091CA02829586958770882F90E081709C
:102620009070009761F482E060E00E94900B89E96D
:1026300091E00E945C0B89EA91E00E941D14809158
:10264000CA0280628093CA021EC083E090E060E00C
:1026500070E00E94AF008091CA02829586958770D3
:10266000882F90E081709070882341F082E060E0D4
:102670000E94900B82EB91E00E945C0B8091CA0259
:102680008F7D8093CA02CF91DF910895DF93CF931E
:1026900000D000D0CDB7DEB79A83898389819A8133
:1026A0009C838B838B819C8181309105C1F08B81D0
:1026B0009C818130910558F08B819C8182309105FD
:1026C000B9F08B819C8183309105D9F021C0A3E5BD
:1026D000B0E0E3E5F0E08081877B8C9319C0A3E54F
:1026E000B0E0E3E5F0E08081877B80648C9310C0EC
:1026F000A3E5B0E0E3E5F0E08081877B88608C9320
:1027000007C0A3E5B0E0E3E5F0E0808188648C9346
:102710000F900F900F900F90CF91DF910895DF935E
:10272000CF9300D000D0CDB7DEB79A83898389815B
:102730009A819C838B838B819C8181309105C1F030
:102740008B819C818130910558F08B819C818230F6
:102750009105B9F08B819C8183309105D9F021C01E
:10276000A5E4B0E0E5E4F0E08081877B8C9319C0BC
:10277000A5E4B0E0E5E4F0E08081877B80648C93A1
:1027800010C0A5E4B0E0E5E4F0E08081877B8860DC
:102790008C9307C0A5E4B0E0E5E4F0E080818864B4
:1027A0008C930F900F900F900F90CF91DF91089521
:1027B000DF93CF93CDB7DEB7AAE2B0E0EAE2F0E074
:1027C000808188618C93A0E4B0E0E0E4F0E0808157
:1027D00086688C93E9E2F0E087E68083E0E4F0E04D
:1027E0001082CF91DF910895DF93CF930F92CDB7F1
:1027F000DEB78983EBE2F0E0808182958695877071
:10280000882F90E0817090700097A1F3ECE2F0E0E7
:10281000898180830F90CF91DF910895DF93CF93CB
:10282000CDB7DEB7EBE2F0E080818823DCF7ECE2A5
:10283000F0E08081CF91DF910895DF93CF9300D0B6
:1028400000D0CDB7DEB79C838B838FEF9FEF9A8349
:1028500089830AC029813A818B819C81FC01E20F26
:10286000F31F80810E94F41389819A8101969A83D3
:10287000898329813A818B819C81FC01E20FF31FBE
:102880008081882339F70F900F900F900F90CF9190
:10289000DF910895EF92FF920F931F937B018C01BC
:1028A00020E030E040E05FE40E947A1788238CF05B
:1028B000C801B70120E030E040E05FE40E94C215AB
:1028C0000E9438189B01AC012050304040405048D5
:1028D00006C0C801B7010E9438189B01AC01B901BC
:1028E000CA011F910F91FF90EF900895A0E0B0E012
:1028F000ECE7F4E10C94371BDC012B01FA019C910D
:10290000923008F439C1EB018881823008F433C178
:10291000943069F4843009F02FC111969C9111977D
:102920008981981709F428C1A9EBB1E025C1843049
:1029300009F421C18230A9F4923009F01DC19A0135
:10294000AD0188E0EA010990AE01E90109929E011A
:102950008150C1F7E201898111969C91892381837D
:1029600008C1923009F407C112962D903C9013973C
:10297000EB018A819B811496AD90BD90CD90DC9047
:102980001797EC80FD800E811F819101281B390B68
:10299000B90137FF04C066277727621B730B6032CB
:1029A00071050CF061C0121613066CF53701480171
:1029B000062E04C096948794779467940A94D2F76D
:1029C00021E030E040E050E004C0220F331F441FFC
:1029D000551F6A95D2F721503040404050402E217B
:1029E0003F2140235123211531054105510521F097
:1029F00021E030E040E050E079018A01E628F72844
:102A0000082919293CC0232BD1F1260E371E350188
:102A10004601062E04C096948794779467940A948E
:102A2000D2F721E030E040E050E004C0220F331F35
:102A3000441F551F6A95D2F7215030404040504006
:102A40002A213B214C215D212115310541055105EC
:102A500021F021E030E040E050E059016A01A62871
:102A6000B728C828D9280BC0821593052CF01C0163
:102A7000AA24BB24650103C0EE24FF24870111961C
:102A80009C91D20111968C91981709F445C0992315
:102A900039F0A80197012A193B094C095D0906C0C4
:102AA000A60195012E193F09400B510B57FD08C097
:102AB00011823382228224833583468357831DC04B
:102AC00081E081833382228288279927DC01821B5F
:102AD000930BA40BB50B84839583A683B7830DC09A
:102AE000220F331F441F551F24833583468357838A
:102AF00082819381019793838283248135814681EA
:102B00005781DA01C9010197A109B1098F5F9F4F70
:102B1000AF4FBF4328F30BC0918333822282EA0C6C
:102B2000FB1C0C1D1D1DE482F5820683178383E0C8
:102B30008083248135814681578157FF1AC0C9019E
:102B4000AA2797FDA095BA2F81709070A070B070E1
:102B50005695479537952795822B932BA42BB52B0C
:102B600084839583A683B78382819381019693831F
:102B70008283DF0101C0D201CD01CDB7DEB7E2E132
:102B80000C94531BA0E2B0E0E8ECF5E10C94431B7D
:102B900069837A838B839C832D833E834F835887FD
:102BA000E9E0EE2EF12CEC0EFD1ECE010196B701F0
:102BB0000E94291A8E010F5E1F4FCE010596B801A3
:102BC0000E94291A8A8991E089278A8BC701B80156
:102BD000AE01475E5F4F0E9476140E945419A09682
:102BE000E6E00C945F1BA0E2B0E0E9EFF5E10C94A5
:102BF000431B69837A838B839C832D833E834F831E
:102C00005887F9E0EF2EF12CEC0EFD1ECE01019657
:102C1000B7010E94291A8E010F5E1F4FCE01059643
:102C2000B8010E94291AC701B801AE01475E5F4F83
:102C30000E9476140E945419A096E6E00C945F1B43
:102C4000A0E2B0E0E6E2F6E10C94371B69837A83F8
:102C50008B839C832D833E834F835887CE010196BF
:102C6000BE01675F7F4F0E94291ACE010596BE0103
:102C70006F5E7F4F0E94291A9985923088F089896A
:102C80008230C8F0943019F4823051F404C084309A
:102C900029F4923081F489EB91E0C6C0923049F476
:102CA00020E09A858A89981321E02A87CE01099627
:102CB000BBC0823049F420E09A858A89981321E0CC
:102CC0002A8BCE014196B0C02D843E844F84588813
:102CD0006D887E888F88988CEE24FF248701AA2433
:102CE000BB24650140E050E060E070E0E0E0F0E02F
:102CF000C10181709070892BE9F0E60CF71C081D6A
:102D0000191D9A01AB012A0D3B1D4C1D5D1D80E074
:102D100090E0A0E0B0E0E614F7040805190520F4FF
:102D200081E090E0A0E0B0E0BA01A901480F591F8E
:102D30006A1F7B1FAA0CBB1CCC1CDD1C97FE08C0A5
:102D400081E090E0A0E0B0E0A82AB92ACA2ADB2AF4
:102D50003196E032F10549F0660C771C881C991C0D
:102D60005694479437942794C3CFFA85EA892B89E0
:102D70003C898B859C85280F391F2E5F3F4F17C0DC
:102D8000CA0181709070892B61F016950795F794B0
:102D9000E79480E090E0A0E0B0E8E82AF92A0A2B66
:102DA0001B2B76956795579547952F5F3F4F77FD7E
:102DB000E7CF0CC0440F551F661F771F17FD4160FA
:102DC000EE0CFF1C001F111F21503040403090E0DE
:102DD000590790E0690790E4790760F32B8F3C8FE7
:102DE000DB01CA018F779070A070B07080349105BC
:102DF000A105B10561F447FD0AC0E114F104010524
:102E0000110529F0405C5F4F6F4F7F4F40781A8E5D
:102E1000FE1711F081E08A8F4D8F5E8F6F8F78A340
:102E200083E0898FCE0149960E945419A096E2E171
:102E30000C94531BA8E1B0E0E0E2F7E10C94431BD3
:102E400069837A838B839C832D833E834F8358874A
:102E500089E0E82EF12CEC0EFD1ECE010196B701A3
:102E60000E94291A8E010F5E1F4FCE010596B801F0
:102E70000E94291A8985823040F08989823028F0A1
:102E8000C701B8010E94A11A01C081E06896E6E07E
:102E90000C945F1BA8E1B0E0E0E5F7E10C94431B64
:102EA00069837A838B839C832D833E834F835887EA
:102EB00089E0E82EF12CEC0EFD1ECE010196B70143
:102EC0000E94291A8E010F5E1F4FCE010596B80190
:102ED0000E94291A8985823040F08989823028F041
:102EE000C701B8010E94A11A01C08FEF6896E6E001
:102EF0000C945F1BA8E1B0E0E0E8F7E10C94431B01
:102F000069837A838B839C832D833E834F83588789
:102F100089E0E82EF12CEC0EFD1ECE010196B701E2
:102F20000E94291A8E010F5E1F4FCE010596B8012F
:102F30000E94291A8985823040F08989823028F0E0
:102F4000C701B8010E94A11A01C08FEF6896E6E0A0
:102F50000C945F1BA8E1B0E0E0EBF7E10C94431B9D
:102F600069837A838B839C832D833E834F83588729
:102F700089E0E82EF12CEC0EFD1ECE010196B70182
:102F80000E94291A8E010F5E1F4FCE010596B801CF
:102F90000E94291A8985823040F08989823028F080
:102FA000C701B8010E94A11A01C081E06896E6E05D
:102FB0000C945F1BA8E0B0E0E0EEF7E10C94401B3E
:102FC0009B01AC0183E08983DA01C9018827B7FD41
:102FD00083959927AA27BB27B82E211531054105CE
:102FE000510519F482E089833AC08823A9F0203082
:102FF00080E0380780E0480780E8580729F460E05F
:1030000070E080E09FEC30C0EE24FF248701E21ADC
:10301000F30A040B150B02C079018A018EE1C82E58
:10302000D12CDC82CB82ED82FE820F831887C8010F
:10303000B7010E94051901971816190684F4082E85
:1030400004C0EE0CFF1C001F111F0A94D2F7ED8282
:10305000FE820F831887C81AD90ADC82CB82BA8213
:10306000CE0101960E9454192896E9E00C945C1B4D
:10307000ACE0B0E0EEE3F8E10C94471B69837A839F
:103080008B839C83CE010196BE016B5F7F4F0E94B4
:10309000291A8D81823061F1823050F1843021F41F
:1030A0008E81882351F12EC02F81388537FD20C0B5
:1030B0006E812F3131051CF06623F9F023C08EE1BB
:1030C00090E0821B930B29853A854B855C8504C073
:1030D00056954795379527958A95D2F76623B1F08F
:1030E00050954095309521953F4F4F4F5F4F0EC003
:1030F00020E030E040E050E009C02FEF3FEF4FEF1D
:103100005FE704C020E030E040E050E8B901CA01C8
:103110002C96E2E00C94631BA8E0B0E0E2E9F8E151
:103120000C943F1B7B018C01611571058105910594
:1031300019F482E0898360C083E089838EE1C82E20
:10314000D12CDC82CB82ED82FE820F831887C801EE
:10315000B7010E940519FC013197F7FF3BC02227F8
:1031600033272E1B3F0B57016801022E04C0D69453
:10317000C794B794A7940A94D2F740E050E060E077
:1031800070E081E090E0A0E0B0E004C0880F991FFB
:10319000AA1FBB1F2A95D2F70197A109B1098E2159
:1031A0009F21A023B1230097A105B10521F041E0A3
:1031B00050E060E070E04A295B296C297D294D834D
:1031C0005E836F8378878EE190E08E1B9F0B9C83DC
:1031D0008B8312C0309781F00E2E04C0EE0CFF1CC2
:1031E000001F111F0A94D2F7ED82FE820F83188709
:1031F000CE1ADF0ADC82CB821A82CE0101960E94AF
:1032000054192896EAE00C945B1BEF92FF920F93FF
:103210001F937B018C0180E0E81680E0F80681E0D6
:10322000080780E0180788F48FEFE816F10401051D
:10323000110531F028F088E090E0A0E0B0E017C080
:1032400080E090E0A0E0B0E012C080E0E81680E00E
:10325000F80680E0080781E0180728F088E190E090
:10326000A0E0B0E004C080E190E0A0E0B0E020E2A7
:1032700030E040E050E0281B390B4A0B5B0B04C0E8
:1032800016950795F794E7948A95D2F7F701EF53CF
:10329000FE4F8081281B310941095109C9011F9145
:1032A0000F91FF90EF900895DF92EF92FF920F93AE
:1032B0001F93FC01E480F58006811781D180808115
:1032C000823048F480E090E0A0E1B0E0E82AF92AFA
:1032D0000A2B1B2BA5C0843009F49FC0823021F437
:1032E000EE24FF24870105C0E114F1040105110556
:1032F00019F4E0E0F0E096C0628173819FEF6238DC
:1033000079070CF05BC022E83FEF261B370B2A3110
:1033100031052CF020E030E040E050E02AC0B80158
:10332000A701022E04C076956795579547950A9494
:10333000D2F781E090E0A0E0B0E004C0880F991FD0
:10334000AA1FBB1F2A95D2F70197A109B1098E21A7
:103350009F21A023B1230097A105B10521F081E0B1
:1033600090E0A0E0B0E09A01AB01282B392B4A2B6A
:103370005B2BDA01C9018F779070A070B070803438
:103380009105A105B10539F427FF09C0205C3F4F25
:103390004F4F5F4F04C0215C3F4F4F4F5F4FE0E006
:1033A000F0E02030A0E03A07A0E04A07A0E45A0786
:1033B00010F0E1E0F0E079018A0127C06038710582
:1033C00064F5FB01E158FF4FD801C7018F7790707A
:1033D000A070B07080349105A105B10539F4E7FE05
:1033E0000DC080E490E0A0E0B0E004C08FE390E086
:1033F000A0E0B0E0E80EF91E0A1F1B1F17FF05C072
:1034000016950795F794E794319687E016950795FA
:10341000F794E7948A95D1F705C0EE24FF2487013D
:10342000EFEFF0E06E2F679566276795902F9F77F7
:10343000D794DD24D7948E2F8695492F462B582F6D
:103440005D29B701CA011F910F91FF90EF90DF90A6
:103450000895FC01DB01408151812281622F6F7749
:1034600070E0221F2227221F9381892F880F822B31
:10347000282F30E0991F9927991F11969C93119737
:1034800021153105A9F5411551056105710511F4A5
:1034900082E037C082E89FEF13969C938E93129739
:1034A0009A01AB0167E0220F331F441F551F6A9535
:1034B000D1F783E08C930DC0220F331F441F551F9B
:1034C00012968D919C911397019713969C938E93CE
:1034D0001297203080E0380780E0480780E45807E2
:1034E00058F314962D933D934D935C93179708953D
:1034F0002F3F310579F4411551056105710519F426
:1035000084E08C93089564FF03C081E08C9312C023
:103510001C9210C02F57304013963C932E93129755
:1035200083E08C9387E0440F551F661F771F8A95B1
:10353000D1F7706414964D935D936D937C931797B8
:1035400008951F93DC01FB019C91923008F447C061
:103550008081823008F443C0943051F411961C915C
:10356000843099F58181682F70E0611B71093FC03B
:10357000843021F0923031F48230B9F18181882396
:1035800089F12DC011961C9111978230F1F0818143
:103590001817D9F412962D913C911397828193813B
:1035A0008217930794F028173907BCF014968D9171
:1035B0009D910D90BC91A02D24813581468157812C
:1035C000281739074A075B0718F4112341F00AC08E
:1035D00082179307A407B50740F4112319F061E09F
:1035E00070E005C06FEF7FEF02C060E070E0CB01DC
:1035F0001F91089597FB092E05260ED057FD04D084
:1036000014D00AD0001C38F450954095309521957F
:103610003F4F4F4F5F4F0895F6F790958095709507
:1036200061957F4F8F4F9F4F0895A1E21A2EAA1BDD
:10363000BB1BFD010DC0AA1FBB1FEE1FFF1FA21762
:10364000B307E407F50720F0A21BB30BE40BF50B5F
:10365000661F771F881F991F1A9469F760957095E8
:10366000809590959B01AC01BD01CF0108952F92EB
:103670003F924F925F926F927F928F929F92AF9202
:10368000BF92CF92DF92EF92FF920F931F93CF934F
:10369000DF93CDB7DEB7CA1BDB0B0FB6F894DEBFE6
:1036A0000FBECDBF09942A88398848885F846E840C
:1036B0007D848C849B84AA84B984C884DF80EE8056
:1036C000FD800C811B81AA81B981CE0FD11D0FB65F
:1036D000F894DEBF0FBECDBFED010895F894FFCF83
:1036E00001000000000000000100000001000000D7
:1036F00001000000010000000100000001000000C6
:1037000001000000010000000100000001000000B5
:1037100001000000010000000100000001000000A5
:103720000000010001000000010000000100000095
:103730000100000001000000010000000100000085
:103740000100000001000000010000000100000075
:103750000100000001000000010000000100000065
:103760000103B8317374204D65642E2054696D6572
:1037700000326E64204D65642E2054696D65004DE5
:10378000656420312054696D6520200020202020B0
:103790002020202020202020202020006D65642E65
:1037A000206E756D3A006E756D2E206F6620686F05
:1037B0007572733A004D656420312073657420651D
:1037C000766572793A002068004D65642032207376
:1037D00065742065766572793A0065727220696E4B
:1037E000707574206661696C656400476173204C74
:1037F00065616B6167652121202000676173204C42
:1038000065616B6167652121202000202020202038
:1038100020202020202020200046697265212120C0
:1038200020202020202020200046697265212120B0
:1038300020002020202020200000000000000000A8
:10384000000001020203030303040404040404044B
:103850000405050505050505050505050505050519
:1038600005060606060606060606060606060606F9
:1038700006060606060606060606060606060606E8
:1038800006070707070707070707070707070707C9
:1038900007070707070707070707070707070707B8
:1038A00007070707070707070707070707070707A8
:1038B0000707070707070707070707070707070798
:1038C0000708080808080808080808080808080879
:1038D0000808080808080808080808080808080868
:1038E0000808080808080808080808080808080858
:1038F0000808080808080808080808080808080848
:103900000808080808080808080808080808080837
:103910000808080808080808080808080808080827
:103920000808080808080808080808080808080817
:103930000808080808080808080808080808080807
:0239400008007D
:00000001FF
